:10027900202C11303F3106325B334F3466356D36F1
:100289007D3707387F396F4177427C4339445E4572
:1002990079467148764C385A5B596E536D000001A6
:0202A900100043
:0D02FC00D2A0D2A1D2A2D2A3D2A4D2A52218
:10016A00E4FFEFFD3395E0FCC3ED9406EC64809464
:10017A0080504712000EB42E0B1F743D2FF8E64430
:10018A0080F6802CE4FEEE25E02411F8E6602112C8
:10019A00000EFDEE25E02411F8E6B50510EE25E087
:1001AA002412F8E6FE743D2FF8A60680030E80D6C8
:0C01BA00740129F9E43AFA0F80A87F00D4
:0101C6002216
:1001C7001202FC743D2510F8E6F4F580E510146082
:1001D7001414601514601614601714601824057041
:1001E70016C2A08012C2A1800EC2A2800AC2A3803A
:1001F70006C2A48002C2A50510E51075F006848525
:02020700F010F5
:0102090022D2
:1002D6008E438F44E5444543700363B0FFE54445D0
:0402E6004370FA2245
:1002AC00438901D2AFC3E49FFFE49EAB07FA7C0104
:1002BC007D00FE1200278F8CAE02AF037C017D0007
:0902CC001200278D8AD2A9D28C00
:0102D5002206
:1002EA007E007F067D007B007A00793D12005D7FEB
:0202FA000022E0
:080003004542592E3538330047
:03000B00020244AA
:10024400C0E0C0F0C083C082C0D075D0081201C71E
:10025400AE45AF467C017D001200278F8CAE45AFC2
:10026400467C017D001200278D8AD0D0D082D083B5
:05027400D0F0D0E032E3
:10020A007BFF7A00790375470075480A12016A4331
:10021A008901D2AF7545FF754638AE45AF467C01B8
:10022A007D001200278F8CAE45AF467C017D0012FF
:0A023A0000278D8AD2A9D28C80FE25
:030000000200DE1D
:0C00DE00787FE4F6D8FD7581480201250A
:10000E00BB010689828A83E0225002E722BBFE02F0
:09001E00E32289828A83E4932223
:10002700C2D5EC30E709B2D5E4C39DFDE49CFCEEF4
:1000370030E715B2D5E4C39FFFE49EFE120089C3E3
:10004700E49DFDE49CFC800312008930D507C3E4DE
:060057009FFFE49EFE2263
:10005D00EF4E6012EF60010EEDBB010B89828A83BA
:10006D00F0A3DFFCDEFA2289F05007F709DFFCA9C7
:0C007D00F022BBFEFCF309DFFCA9F0221E
:1000EA0002020AE493A3F8E493A34003F68001F220
:1000FA0008DFF48029E493A3F85407240CC8C33317
:10010A00C4540F4420C8834004F456800146F6DFE5
:10011A00E4800B0102040810204080900279E47EFA
:10012A00019360BCA3FF543F30E509541FFEE493DA
:10013A00A360010ECF54C025E060A840B8E493A3A1
:10014A00FAE493A3F8E493A3C8C582C8CAC583CACC
:10015A00F0A3C8C582C8CAC583CADFE9DEE780BE84
:0102AB000052
:10008900BC000BBE0029EF8DF084FFADF022E4CC5B
:10009900F875F008EF2FFFEE33FEEC33FCEE9DEC24
:1000A900984005FCEE9DFE0FD5F0E9E4CEFD22ED6A
:1000B900F8F5F0EE8420D21CFEADF075F008EF2FB4
:1000C900FFED33FD4007985006D5F0F222C398FDA5
:0500D9000FD5F0EA2242
:00000001FF
