:05078000000000000074
:0406A200024A000008
:1005C200783B7C007D007BFF7A0779807E007F0587
:1005D2001203381204DA743B254BF8A60712072BD4
:1005E200743B254BF8E6FF3395E0FEEFF47002EE24
:1005F200F46016054BE54B7002054AAE4AFF7C00DB
:100602007D061203898C4A8D4B7B007A00793B125E
:07061200056512065F80BCC4
:1004DA007542FF75B0F0AFB0EF64F0607B12072B86
:1004EA00AFB0EF64F0607175B0F020B405754101EA
:1004FA00800E20B505754102800620B603754103BA
:10050A0075B00F20B005E4F540801620B10575409E
:10051A0001800E20B205754002800620B3037540A3
:10052A0003E54075F003A42541F542FD3395E0FC4F
:10053A00ED640B4C70037F3022ED640A4C70037F2C
:10054A00FE22AF42EF3395E0FEEF640C4E70037F5C
:0A055A00FD22E5422430FF227FFF5E
:010564002274
:10072B0075430A7544E6E5441544AE437002154320
:08073B004E600512065F80EE1E
:010743002293
:10070D00E4F54CC3E54C94B87480948B500FC2B58E
:0D071D007F057E001206F8D2B5054C80E67F
:01072A0022AC
:10061900AD07AC06EC1201AEA804A905AA06AB0702
:10062900E4FFFE7D807C3F12010C8F498E488D4787
:100639008C46E4F545AF45EF3395E0FEC3EF941ED4
:10064900EE64809480500EC2B51206D9D2B5120656
:05065900D9054580E019
:01065E002279
:100744007C037D99120377EF1FAC0670011E4C7079
:01075400F6AE
:010755002281
:1006D9007F007E407D1C7C46AB49AA48A947A846B5
:0F06E900120003E4FBFAF9784012010C1201E74A
:1006F8001201E77C007D5D120377EF1FAC067001E5
:040708001E4C70F61D
:01070C0022CA
:1006A600202C09303F3106325B334F3466356D36C8
:1006B6007D3707387F396F4177427C4339445E4541
:1006C60079467148764C385A5B596E536D00000175
:0206D60008001A
:0D076800D2A0D2A1D2A2D2A3D2A4D2A522A7
:10056500E4FFEFFD3395E0FCC3ED9406EC64809465
:1005750080504712035EB42E0B1F74352FF8E644E6
:1005850080F6802CE4FEEE25E02409F8E6602112D1
:10059500035EFDEE25E02409F8E6B50510EE25E03D
:1005A500240AF8E6FE74352FF8A60680030E80D6D9
:0C05B500740129F9E43AFA0F80A87F00D5
:0105C1002217
:10065F0012076874352508F8E6F4F580E50814608C
:10066F0014146015146016146017146018240570A4
:10067F0016C2A08012C2A1800EC2A2800AC2A3809D
:10068F0006C2A48002C2A50508E50875F006848598
:02069F00F00861
:0106A1002236
:0B077500EF1FAC0670011E4C70F62256
:100756007E007F067D007B007A0079351203CD7F0F
:0207660000226F
:10000300EC4D6011E8497017ED33EC3304600DE4F7
:10001300FCFFFEFD22E933E8330470F802025312B9
:10002300021E58046009E4CC2481500628500902BA
:10003300025D28400302025AC0E0EB4A7044B980D3
:1000430006D0E0FB020249EF4E701CBD8008EBFFB7
:10005300EAFEE9FD80EBE98DF0A4FEE5F00200EC99
:10006300E9CDF9EAFEEBFFEF89F0A4FCE5F0CE89D8
:10007300F0A42EFFE435F0CD89F0A42DFEE435F095
:100083008067EF4E7005BD80D780C3EF8BF0A4ACC3
:10009300F0EE8BF0A42CFCE435F0F8EF8AF0A42CFE
:1000A300E5F038FCE433CB8DF0A42CFCE5F03BF811
:1000B300EE8AF0A42CFCE5F038F8E433CF89F0A401
:1000C3002CFCE5F038CF3400CE89F0A42FFFE5F007
:1000D3003EFEE433C98DF0A42EFEE5F039CD8AF05F
:1000E300A42FFFE5F03EFEE43DFD33D0E0FB5007D7
:1000F3000BBB000F02025DEC2CFCEF33FFEE33FE73
:06010300ED33FD020235A0
:1001090002025DEC5D046005E859047003020253C4
:1001190012021E580460F6EC4860F2EC7004FDFE11
:10012900FF22C860DB2481C85009C39860025006C9
:1001390002025A9850CAF582E9294B4A7005AB82E6
:1001490002024975F0007C1A7880C3EF9BEE9AEDA4
:1001590099400DC3EF9BFFEE9AFEED99FDE842F041
:10016900DC23ACF0D0E0FFD0E0FED0E0FDAB822094
:10017900E7101BEB60BAEC2CFCEF33FFEE33FEED1E
:1001890033FD020235E803F830E705C0F075F000E9
:10019900EF2FFFEE33FEED33FD40B830E7C280AA02
:1001A90075F020800E75F010800575F0087D007ED1
:1001B900007F003392D530D5031203BFEC334010D2
:1001C900EF33FFEE33FEED33FDEC33FCD5F0ED22DA
:0E01D900E5F0247EA2D513CC92E7CDCEFF2216
:1001E700EDD2E7CD33EC3392D524814006E4FFFE10
:1001F700FDFC22FCE4CFCECDCC24E0501174FF806F
:10020700EDC3CC13CCCD13CDCE13CECF13CF04700B
:07021700F030D5DE0203BF49
:10021E00E9D2E7C933E833F892D5EDD2E7CD33EC26
:07022E0033FC5002B2D5229F
:10023500EC30E7100FBF000C0EBE00080DBD00042A
:100245000BEB6014A2D5EB13FCED92E7FD2274FFD6
:10025500FCFDFEFF22E480F8A2D574FF13FC7D802F
:03026500E480EF43
:0300000002044EA9
:0C044E00787FE4F6D8FD75814C0204951F
:10026800E709F608DFFA8046E709F208DFFA803E78
:1002780088828C83E709F0A3DFFA8032E309F60865
:10028800DFFA8078E309F208DFFA807088828C83CD
:10029800E309F0A3DFFA806489828A83E0A3F60881
:1002A800DFFA805889828A83E0A3F208DFFA804C5B
:1002B80080D280FA80C680D4806980F28033801032
:1002C80080A680EA809A80A880DA80E280CA80339B
:1002D80089828A83ECFAE493A3C8C582C8CCC58313
:1002E800CCF0A3C8C582C8CCC583CCDFE9DEE780E3
:1002F8000D89828A83E493A3F608DFF9ECFAA9F062
:10030800EDFB2289828A83ECFAE0A3C8C582C8CCB7
:10031800C583CCF0A3C8C582C8CCC583CCDFEADED0
:10032800E880DB89828A83E493A3F208DFF980CC32
:1003380088F0EF60010E4E60C388F0ED2402B4042B
:100348000050B9F582EB2402B4040050AF232345D2
:0603580082239002B8733D
:10035E00BB010689828A83E0225002E722BBFE029D
:09036E00E32289828A83E49322D0
:10037700EF8DF0A4A8F0CF8CF0A428CE8DF0A42E9A
:02038700FE2254
:10038900C2D5EC30E709B2D5E4C39DFDE49CFCEE8F
:1003990030E715B2D5E4C39FFFE49EFE1203F9C30B
:1003A900E49DFDE49CFC80031203F930D507C3E406
:0603B9009FFFE49EFE22FE
:0E03BF00C3E49FFFE49EFEE49DFDE49CFC224F
:1003CD00EF4E6012EF60010EEDBB010B89828A8347
:1003DD00F0A3DFFCDEFA2289F05007F709DFFCA954
:0C03ED00F022BBFEFCF309DFFCA9F022AB
:10045A000205C2E493A3F8E493A34003F68001F2F1
:10046A0008DFF48029E493A3F85407240CC8C333A3
:10047A00C4540F4420C8834004F456800146F6DF72
:10048A00E4800B01020408102040809006A2E47E5A
:10049A00019360BCA3FF543F30E509541FFEE49367
:1004AA00A360010ECF54C025E060A840B8E493A32E
:1004BA00FAE493A3F8E493A3C8C582C8CAC583CA59
:1004CA00F0A3C8C582C8CAC583CADFE9DEE780BE11
:0106D8000021
:1003F900BC000BBE0029EF8DF084FFADF022E4CCE8
:10040900F875F008EF2FFFEE33FEEC33FCEE9DECB0
:10041900984005FCEE9DFE0FD5F0E9E4CEFD22EDF6
:10042900F8F5F0EE8420D21CFEADF075F008EF2F40
:10043900FFED33FD4007985006D5F0F222C398FD31
:050449000FD5F0EA22CE
:00000001FF
