:0403A400021900003A
:1002AE001200D37408251AF8A607120361740825E4
:1002BE001AF8E6FF3395E0FEEFF47002EEF46016E6
:1002CE00051AE51A70020519AE19FF7C007D06129B
:1002DE00001C8C198D1A7B007A0079081201891284
:0402EE0002F280BCDC
:1000D30075B0F0AFB0EF64F07003020186120361F4
:1000E300AFB0EF64F0700302018675B0F020B40581
:1000F300750F01800B20B505750F028003750F0383
:1001030075B00F20B005E4F50E801320B105750E10
:1001130001800B20B205750E028003750E03E50EF8
:1001230075F003A4250FFF14B40C00505690013E44
:1001330075F003A4C58325F0C58373020162020130
:100143006502016802016B02016E02017102017412
:1001530002017702017A02017D0201800201837F9D
:1001630031227F32227F33227F34227F35227F3632
:10017300227F37227F38227F39227FFE227F30225F
:050183007FFD227FFF5B
:010188002254
:1003610075100A7511CBE5111511AE10700215103B
:080371004E60051202F280EE5D
:010379002261
:10033500303F3106325B334F3466356D367D3707D6
:10034500387F396F4177427C4339445E4579467140
:0C03550048764C385A5B596E536D00001E
:0303A8000112003F
:0D038C00D2A0D2A1D2A2D2A3D2A4D2A52287
:10018900E4FDEDFF3395E0FEC3EF9406EE64809441
:1001990080400302021F120003B42E0B1D74132D9D
:1001A900F8E64480F68064E4FCECFF3395E0FEEF6A
:1001B90025E0FFEE33FE74352FF58274033EF58397
:1001C900E4936047ECFF3395E0FEEF25E0FFEE3363
:1001D900FE74352FF58274033EF583E493FF120014
:1001E90003FEEFB50622ECFF3395E0FEEF25E0FFB5
:1001F900EE33FE74362FF58274033EF583E493FFE4
:1002090074132DF8A60780030C809E740129F9E464
:080219003AFA0D02018B7F008F
:0102210022BA
:1002F20012038C74132512F8E6F4F580E5121460EB
:100302001414601514601614601714601824057014
:1003120016C2A08012C2A1800EC2A2800AC2A3800D
:1003220006C2A48002C2A50512E51275F0068485F4
:02033200F012C7
:0103340022A6
:0B039900EF1FAC0670011E4C70F62236
:10037A007E007F067D007B007A0079131200527F8F
:02038A0000224F
:03000000020222D7
:0C022200787FE4F6D8FD75811A020269AD
:10000300BB010689828A83E0225002E722BBFE02FB
:09001300E32289828A83E493222E
:10001C00C2D5EC30E709B2D5E4C39DFDE49CFCEEFF
:10002C0030E715B2D5E4C39FFFE49EFE12007EC3F9
:10003C00E49DFDE49CFC800312007E30D507C3E4F4
:06004C009FFFE49EFE226E
:10005200EF4E6012EF60010EEDBB010B89828A83C5
:10006200F0A3DFFCDEFA2289F05007F709DFFCA9D2
:0C007200F022BBFEFCF309DFFCA9F02229
:10022E000202AEE493A3F8E493A34003F68001F236
:10023E0008DFF48029E493A3F85407240CC8C333D1
:10024E00C4540F4420C8834004F456800146F6DFA0
:10025E00E4800B01020408102040809003A4E47E89
:10026E00019360BCA3FF543F30E509541FFEE49395
:10027E00A360010ECF54C025E060A840B8E493A35C
:10028E00FAE493A3F8E493A3C8C582C8CAC583CA87
:10029E00F0A3C8C582C8CAC583CADFE9DEE780BE3F
:0103AB000051
:10007E00BC000BBE0029EF8DF084FFADF022E4CC66
:10008E00F875F008EF2FFFEE33FEEC33FCEE9DEC2F
:10009E00984005FCEE9DFE0FD5F0E9E4CEFD22ED75
:1000AE00F8F5F0EE8420D21CFEADF075F008EF2FBF
:1000BE00FFED33FD4007985006D5F0F222C398FDB0
:0500CE000FD5F0EA224D
:00000001FF
