:1001D900C2A01200038F08E50824D0B40A0050F227
:1001E9009001F775F003A4C58325F0C58373020256
:1001F9001502021A02021F02022402022902022E19
:1002090002023302023802023D0202427580C080B6
:10021900C17580F980BC7580F480B77580B080B2F3
:1002290075809980AD75809280A875808280A3754C
:0E02390080F8809E75808080997580908094FA
:1000030075B0F0AFB0EF64F070030200B17F7E7E95
:100013003612031AAFB0EF64F070030200B175B08B
:10002300F020B405750F01800B20B505750F028014
:1000330003750F0375B00F20B005E4F50E80132090
:10004300B105750E01800B20B205750E0280037594
:100053000E03E50E75F003A4250FFF14B40B005037
:100063004D90007275F003A4C58325F0C583730218
:10007300009602009902009C02009F0200A2020067
:10008300A50200A80200AB0200AE0200B102009379
:100093007F30227F31227F32227F33227F34227FBF
:1000A30035227F36227F37227F38227F39227FFF16
:0100B300222A
:1002CF00303F3106325B334F3466356D367D37073D
:1002DF00387F396F4177427C4339445E45794671A7
:0C02EF0048764C385A5B596E536D000085
:03032500011000C4
:0D030D00D2A0D2A1D2A2D2A3D2A4D2A52206
:1000B400E4FDEDFF3395E0FEC3EF9406EE64809417
:1000C40080400302014A120247B42E0B1D74112D05
:1000D400F8E64480F68064E4FCECFF3395E0FEEF40
:1000E40025E0FFEE33FE74CF2FF58274023EF583D4
:1000F400E4936047ECFF3395E0FEEF25E0FFEE3339
:10010400FE74CF2FF58274023EF583E493FF12024E
:1001140047FEEFB50622ECFF3395E0FEEF25E0FF46
:10012400EE33FE74D02FF58274023EF583E493FF20
:1001340074112DF8A60780030C809E740129F9E43C
:080144003AFA0D0200B67F003B
:01014C002290
:10028C0012030D74112510F8E6F4F580E5101460D6
:10029C00141460151460161460171460182405707B
:1002AC0016C2A08012C2A1800EC2A2800AC2A38074
:1002BC0006C2A48002C2A50510E51075F00684855F
:0202CC00F01030
:0102CE00220D
:0B031A00EF1FAC0670011E4C70F622B5
:1002FB007E007F067D007B007A0079111202607F01
:02030B000022CE
:0300000002014DAD
:0C014D00787FE4F6D8FD7581160201945D
:10024700BB010689828A83E0225002E722BBFE02B5
:09025700E32289828A83E49322E8
:10026000EF4E6012EF60010EEDBB010B89828A83B5
:10027000F0A3DFFCDEFA2289F05007F709DFFCA9C2
:0C028000F022BBFEFCF309DFFCA9F02219
:100159000201D9E493A3F8E493A34003F68001F2E2
:1001690008DFF48029E493A3F85407240CC8C333A7
:10017900C4540F4420C8834004F456800146F6DF76
:10018900E4800B0102040810204080900325E47EDE
:10019900019360BCA3FF543F30E509541FFEE4936B
:1001A900A360010ECF54C025E060A840B8E493A332
:1001B900FAE493A3F8E493A3C8C582C8CAC583CA5D
:1001C900F0A3C8C582C8CAC583CADFE9DEE780BE15
:0103280000D4
:00000001FF
