:04037900021A000064
:100283001201F87408251BF8A60712033674082513
:100293001BF8E6FF3395E0FEEFF47002EEF4601610
:1002A300051BE51B7002051AAE1AFF7C007D0612C2
:1002B300001C8C1A8D1B7B007A0079081200D31264
:0402C30002C780BC32
:1001F8007510FF75B0F0AFB0EF64F0607B12033696
:10020800AFB0EF64F0607175B0F020B405750F0100
:10021800800E20B505750F02800620B603750F0302
:1002280075B00F20B005E4F50E801620B105750EE7
:1002380001800E20B205750E02800620B303750EEC
:1002480003E50E75F003A4250FF510FD3395E0FCCA
:10025800ED640B4C70037F3022ED640A4C70037F11
:10026800FE22AF10EF3395E0FEEF640C4E70037F73
:0A027800FD22E5102430FF227FFF75
:010282002259
:1003360075110A7512E6E5121512AE117002151145
:080346004E60051202C780EEB3
:01034E00228C
:10030A00303F3106325B334F3466356D367D370701
:10031A00387F396F4177427C4339445E457946716B
:0C032A0048764C385A5B596E536D000049
:03037D0001130069
:0D036100D2A0D2A1D2A2D2A3D2A4D2A522B2
:1000D300E4FDEDFF3395E0FEC3EF9406EE648094F8
:1000E300804003020169120003B42E0B1D74142D0A
:1000F300F8E64480F68064E4FCECFF3395E0FEEF21
:1001030025E0FFEE33FE740A2FF58274033EF58378
:10011300E4936047ECFF3395E0FEEF25E0FFEE3319
:10012300FE740A2FF58274033EF583E493FF1200F5
:1001330003FEEFB50622ECFF3395E0FEEF25E0FF6B
:10014300EE33FE740B2FF58274033EF583E493FFC5
:1001530074142DF8A60780030C809E740129F9E41A
:080163003AFA0D0200D57F00FD
:01016B002271
:1002C70012036174142513F8E6F4F580E51314603E
:1002D7001414601514601614601714601824057040
:1002E70016C2A08012C2A1800EC2A2800AC2A38039
:1002F70006C2A48002C2A50513E51375F00684851E
:02030700F013F1
:0103090022D1
:0B036E00EF1FAC0670011E4C70F62261
:10034F007E007F067D007B007A0079141200527FB9
:02035F0000227A
:0300000002016C8E
:0C016C00787FE4F6D8FD75811B0201B31A
:10000300BB010689828A83E0225002E722BBFE02FB
:09001300E32289828A83E493222E
:10001C00C2D5EC30E709B2D5E4C39DFDE49CFCEEFF
:10002C0030E715B2D5E4C39FFFE49EFE12007EC3F9
:10003C00E49DFDE49CFC800312007E30D507C3E4F4
:06004C009FFFE49EFE226E
:10005200EF4E6012EF60010EEDBB010B89828A83C5
:10006200F0A3DFFCDEFA2289F05007F709DFFCA9D2
:0C007200F022BBFEFCF309DFFCA9F02229
:10017800020283E493A3F8E493A34003F68001F218
:1001880008DFF48029E493A3F85407240CC8C33388
:10019800C4540F4420C8834004F456800146F6DF57
:1001A800E4800B0102040810204080900379E47E6B
:1001B800019360BCA3FF543F30E509541FFEE4934C
:1001C800A360010ECF54C025E060A840B8E493A313
:1001D800FAE493A3F8E493A3C8C582C8CAC583CA3E
:1001E800F0A3C8C582C8CAC583CADFE9DEE780BEF6
:01038000007C
:10007E00BC000BBE0029EF8DF084FFADF022E4CC66
:10008E00F875F008EF2FFFEE33FEEC33FCEE9DEC2F
:10009E00984005FCEE9DFE0FD5F0E9E4CEFD22ED75
:1000AE00F8F5F0EE8420D21CFEADF075F008EF2FBF
:1000BE00FFED33FD4007985006D5F0F222C398FDB0
:0500CE000FD5F0EA224D
:00000001FF
