:1009DD00C2A01208008F08E50824D0B40A0050F216
:1009ED009009FB75F003A4C58325F0C58373020A36
:1009FD0019020A1E020A23020A28020A2D020A32CD
:100A0D00020A37020A3C020A41020A467580C0807A
:100A1D00C17580F980BC7580F480B77580B080B2E7
:100A2D0075809980AD75809280A875808280A37540
:0E0A3D0080F8809E75808080997580908094EE
:1008000075B0F0AFB0EF64F070030208AE7F7E7E8B
:1008100036120B1EAFB0EF64F070030208AE75B075
:10082000F020B405750F01800B20B505750F02800F
:1008300003750F0375B00F20B005E4F50E8013208B
:10084000B105750E01800B20B205750E028003758F
:100850000E03E50E75F003A4250FFF14B40B005032
:100860004D90086F75F003A4C58325F0C58373020E
:10087000089302089602089902089C02089F020841
:10088000A20208A50208A80208AB0208AE0208905E
:100890007F30227F31227F32227F33227F34227FBA
:1008A00035227F36227F37227F38227F39227FFF11
:0108B0002225
:100AD300303F3106325B334F3466356D367D370731
:100AE300387F396F4177427C4339445E457946719B
:0C0AF30048764C385A5B596E536D000079
:030B2900011000B8
:0D0B1100D2A0D2A1D2A2D2A3D2A4D2A522FA
:1008B100E94A70037FFF22E4FDEDFF3395E0FEC3BB
:1008C100EF9406EE64809480400302094E120A4BB5
:1008D100B42E0B1D74112DF8E64480F68064E4FCFF
:1008E100ECFF3395E0FEEF25E0FFEE33FE74D32FEE
:1008F100F582740A3EF583E4936047ECFF3395E09B
:10090100FEEF25E0FFEE33FE74D32FF582740A3E2D
:10091100F583E493FF120A4BFEEFB50622ECFF3399
:1009210095E0FEEF25E0FFEE33FE74D42FF58274DF
:100931000A3EF583E493FF74112DF8A60780030C9A
:0F094100809E740129F9E43AFA0D0208BA7F008A
:010950002284
:100A9000120B1174112510F8E6F4F580E5101460BE
:100AA000141460151460161460171460182405706F
:100AB00016C2A08012C2A1800EC2A2800AC2A38068
:100AC00006C2A48002C2A50510E51075F006848553
:020AD000F01024
:010AD2002201
:0B0B1E00EF1FAC0670011E4C70F622A9
:100AFF007E007F067D007B007A007911120A647FE9
:020B0F000022C2
:03000000020951A1
:0C095100787FE4F6D8FD75811602099845
:100A4B00BB010689828A83E0225002E722BBFE02A9
:090A5B00E32289828A83E49322DC
:100A6400EF4E6012EF60010EEDBB010B89828A83A9
:100A7400F0A3DFFCDEFA2289F05007F709DFFCA9B6
:0C0A8400F022BBFEFCF309DFFCA9F0220D
:10095D000209DDE493A3F8E493A34003F68001F2CA
:10096D0008DFF48029E493A3F85407240CC8C3339B
:10097D00C4540F4420C8834004F456800146F6DF6A
:10098D00E4800B0102040810204080900B29E47EC6
:10099D00019360BCA3FF543F30E509541FFEE4935F
:1009AD00A360010ECF54C025E060A840B8E493A326
:1009BD00FAE493A3F8E493A3C8C582C8CAC583CA51
:1009CD00F0A3C8C582C8CAC583CADFE9DEE780BE09
:010B2C0000C8
:00000001FF
