:100003003000310032003300340035003600370051
:1000130038003900313000313100313200313300E2
:100023003134003135003136003137003138003199
:100033003900323000323100323200323300323490
:1000430000323500323600323700323800323900A0
:100053003330003331003332003333003334003371
:10006300350033360033370033380033390034304A
:10007300003431003432003433003434003435007A
:100083003436003437003438003439003530003525
:10009300310035320035330035340035350035361F
:1000A3000035370035380035390030300030310045
:1000B3003032003033003034003035003036003019
:1000C3003700303800303900FF0003FF0005FF0020
:1000D30007FF0009FF000BFF000DFF000FFF0011DA
:1000E300FF0013FF0015FF0017FF001AFF001DFF9D
:1000F3000020FF0023FF0026FF0029FF002CFF0044
:100103002FFF0032FF0035FF0038FF003BFF003EAA
:10011300FF0003FF0005FF0007FF0009FF000BFFBF
:10012300000DFF000FFF0011FF0013FF0015FF007C
:1001330017FF001AFF001DFF0020FF0023FF00260A
:10014300FF0029FF002CFF002FFF0032FF0035FFC7
:100153000038FF003BFF003EFF0041FF0044FF006B
:1001630047FF004AFF004DFF0050FF0053FF0056BA
:10017300FF0059FF005CFF005FFF0062FF0065FFA7
:100183000068FF006BFF006EFF0071FF0074FF004B
:1001930077FF007AFF007DFF0080FF0083FF00866A
:1001A300FF0089FF008CFF008FFF0092FF0095FF87
:1001B3000098FF009BFF009EFF00A1FF00A4FF002B
:1001C300A7FF00AAFF00ADFF00B0FF00B3FF00B61A
:1001D300FF00B9FF00BCFF00BFFF00C2FF00C5FF67
:1001E30000C8FF0017FF001AFF001DFF0020FF00DB
:1001F30023FF0026FF0029FF002CFF002FFF003202
:10020300FF0035FF0038FF003BFF003EFF0041FFCA
:100213000044FF0047FF004AFF004DFF0050FF006E
:1002230053FF0056FF0059FF005CFF005FFF0062B1
:10023300FF0065FF0068FF006BFF006EFF0071FFAA
:100243000074FF0077FF007AFF007DFF0080FF004E
:1002530083FF0086FF0089FF008CFF008FFF009261
:10026300FF0095FF0098FF009BFF009EFF00A1FF8A
:1002730000A4FF00A7FF00AA000000000000000088
:01028300007A
:0409C90002320000F6
:0604C9008F128D138B144D
:1004CF0078157C007D007BFF7A02797B7E007F09A7
:1004DF0012035480661209221206A68F1E1209916A
:1004EF00AF1EEF3395E0FEEF64FE7002EEF4700383
:1004FF000205DD0533E533700205326407453270BE
:10050F00D4F532F53305147590FFAF14EF3395E042
:10051F00FEEF643C4E7024F514F5900513AF13EF06
:10052F003395E0FEEF643C4E70110512AF12EF33BE
:10053F0095E0FEEF64184E7002F512AF12EF33958F
:10054F00E0FE9000CB75F003EF12043CEE75F00364
:10055F00A42583F583E493FB740193FA7402938BC0
:10056F00228A23F524AF13EF3395E0FE9001137524
:10057F00F003EF12043CEE75F003A42583F583E43A
:10058F0093FB740193FA7402938B258A26F527AF98
:10059F0014EF3395E0FE9001C775F003EF12043CA2
:1005AF00EE75F003A42583F583E493FB740193FAAE
:1005BF007402938B288A29F52A7B007A0079151209
:0E05CF00075C7B007A0079151207FD0204E438
:0105DD0022FB
:10075C008B1F8A208921AB22AA23A92412037AABEE
:10076C001FAA20A9211203C0AB22AA23A9249000FE
:10077C0001120393AB1FAA20A9219000011203D2EE
:10078C00900002742E1203D2AB25AA26A9271203BD
:10079C007AAB1FAA20A9219000031203D2AB25AA81
:1007AC0026A927900001120393AB1FAA20A9219020
:1007BC0000041203D2900005742E1203D2AB28AAA7
:1007CC0029A92A12037AAB1FAA20A921900006128C
:1007DC0003D2AB28AA29A92A900001120393AB1FBC
:1007EC00AA20A9219000071203D2900008E402036A
:0107FC00D22A
:0409CD0002340000F0
:1005DE007580117B377D3B7F141204C91206A674F9
:1005EE00082535F8A60712099174082535F8E6FF97
:1005FE003395E0FEEFF47002EEF4601D0535E5353F
:10060E007002053464064534601DAE34AF357C008F
:10061E007D061204068C348D357B007A0079081223
:10062E0007FD12092280B5AF08EF3395E0FE7C007E
:10063E007D0A1203F4AD09ED3395E0FCEF2DFFEECC
:10064E003CCF24F0F511EF34FDF510AF0AEF3395E2
:10065E00E0FE7C007D0A1203F4AD0BED3395E0FC59
:10066E00EF2DFFEE3CCF24F0CF34FDAB07AF0CEFF8
:10067E003395E0FE7C007D0A1203F4AD0DED33954B
:10068E00E0FCEF2DFFEE3CCF24F0CF34FD8F82AF98
:08069E0011AD03AB820204C997
:10096500303F3106325B334F3466356D367D3707A0
:10097500387F396F4177427C4339445E457946710A
:0C09850048764C385A5B596E536D0000E8
:0309D100012B00F7
:0D09BC00D2A0D2A1D2A2D2A3D2A4D2A52251
:1007FD00E4FDEDFF3395E0FEC3EF9406EE648094C7
:10080D0080400302089312037AB42E0B1D742C2D15
:10081D00F8E64480F68064E4FCECFF3395E0FEEFEF
:10082D0025E0FFEE33FE74652FF58274093EF583E6
:10083D00E4936047ECFF3395E0FEEF25E0FFEE33E8
:10084D00FE74652FF58274093EF583E493FF120360
:10085D007AFEEFB50622ECFF3395E0FEEF25E0FFC3
:10086D00EE33FE74662FF58274093EF583E493FF33
:10087D00742C2DF8A60780030C809E740129F9E4D1
:08088D003AFA0D0207FF7F009B
:010895002240
:100922001209BC742C252BF8E6F4F580E52B146033
:1009320014146015146016146017146018240570DE
:1009420016C2A08012C2A1800EC2A2800AC2A380D7
:1009520006C2A48002C2A5052BE52B75F00684858C
:02096200F02B78
:010964002270
:0B09D500EF1FAC0670011E4C70F622F4
:1009AA007E007F067D007B007A00792C1204487F46
:0209BA00002219
:1006A60075B0F0AFB0EF64F070030207591209910C
:1006B600AFB0EF64F0700302075975B0F020B405CF
:1006C600752001800B20B505752002800375200377
:1006D60075B00F20B005E4F51F801320B105751F16
:1006E60001800B20B205751F028003751F03E51FED
:1006F60075F003A42520FF14B40C00505690071182
:1007060075F003A4C58325F0C58373020735020778
:100716003802073B02073E02074102074402074729
:1007260002074A02074D0207500207530207567F87
:1007360031227F32227F33227F34227F35227F3659
:10074600227F37227F38227F39227FFE227F302286
:050756007FFD227FFF82
:01075B00227B
:1009910075210A7522E6E5221522AE217002152184
:0809A1004E600512092280EEF0
:0109A900222B
:030000000208965D
:0C089600787FE4F6D8FD7581350208DD9E
:10028400E709F608DFFA8046E709F208DFFA803E5C
:1002940088828C83E709F0A3DFFA8032E309F60849
:1002A400DFFA8078E309F208DFFA807088828C83B1
:1002B400E309F0A3DFFA806489828A83E0A3F60865
:1002C400DFFA805889828A83E0A3F208DFFA804C3F
:1002D40080D280FA80C680D4806980F28033801016
:1002E40080A680EA809A80A880DA80E280CA80337F
:1002F40089828A83ECFAE493A3C8C582C8CCC583F7
:10030400CCF0A3C8C582C8CCC583CCDFE9DEE780C6
:100314000D89828A83E493A3F608DFF9ECFAA9F045
:10032400EDFB2289828A83ECFAE0A3C8C582C8CC9B
:10033400C583CCF0A3C8C582C8CCC583CCDFEADEB4
:10034400E880DB89828A83E493A3F208DFF980CC16
:1003540088F0EF60010E4E60C388F0ED2402B4040F
:100364000050B9F582EB2402B4040050AF232345B6
:0603740082239002D47305
:10037A00BB010689828A83E0225002E722BBFE0281
:09038A00E32289828A83E49322B4
:10039300BB010CE58229F582E5833AF583E022501F
:1003A30006E92582F8E622BBFE06E92582F8E22269
:0D03B300E58229F582E5833AF583E4932283
:1003C000BB010689828A83F0225002F722BBFE011C
:0203D000F32216
:1003D200F8BB010DE58229F582E5833AF583E8F061
:1003E200225006E92582C8F622BBFE05E92582C80D
:0203F200F222F5
:1003F400EF8DF0A4A8F0CF8CF0A428CE8DF0A42E1D
:02040400FE22D6
:10040600C2D5EC30E709B2D5E4C39DFDE49CFCEE11
:1004160030E715B2D5E4C39FFFE49EFE120474C311
:10042600E49DFDE49CFC800312047430D507C3E40C
:060436009FFFE49EFE2280
:0C043C00A42582F582E5F03583F58322CB
:10044800EF4E6012EF60010EEDBB010B89828A83CB
:10045800F0A3DFFCDEFA2289F05007F709DFFCA9D8
:0C046800F022BBFEFCF309DFFCA9F0222F
:1008A2000205DEE493A3F8E493A34003F68001F289
:1008B20008DFF48029E493A3F85407240CC8C33357
:1008C200C4540F4420C8834004F456800146F6DF26
:1008D200E4800B01020408102040809009C9E47EE4
:1008E200019360BCA3FF543F30E509541FFEE4931B
:1008F200A360010ECF54C025E060A840B8E493A3E2
:10090200FAE493A3F8E493A3C8C582C8CAC583CA0C
:10091200F0A3C8C582C8CAC583CADFE9DEE780BEC4
:0109D4000022
:10047400BC000BBE0029EF8DF084FFADF022E4CC6C
:10048400F875F008EF2FFFEE33FEEC33FCEE9DEC35
:10049400984005FCEE9DFE0FD5F0E9E4CEFD22ED7B
:1004A400F8F5F0EE8420D21CFEADF075F008EF2FC5
:1004B400FFED33FD4007985006D5F0F222C398FDB6
:0504C4000FD5F0EA2253
:00000001FF
