:100003003000310032003300340035003600370051
:1000130038003900313000313100313200313300E2
:100023003134003135003136003137003138003199
:100033003900323000323100323200323300323490
:1000430000323500323600323700323800323900A0
:100053003330003331003332003333003334003371
:10006300350033360033370033380033390034304A
:10007300003431003432003433003434003435007A
:100083003436003437003438003439003530003525
:10009300310035320035330035340035350035361F
:1000A3000035370035380035390030300030310045
:1000B3003032003033003034003035003036003019
:1000C3003700303800303900FF0003FF0005FF0020
:1000D30007FF0009FF000BFF000DFF000FFF0011DA
:1000E300FF0013FF0015FF0017FF001AFF001DFF9D
:1000F3000020FF0023FF0026FF0029FF002CFF0044
:100103002FFF0032FF0035FF0038FF003BFF003EAA
:10011300FF0003FF0005FF0007FF0009FF000BFFBF
:10012300000DFF000FFF0011FF0013FF0015FF007C
:1001330017FF001AFF001DFF0020FF0023FF00260A
:10014300FF0029FF002CFF002FFF0032FF0035FFC7
:100153000038FF003BFF003EFF0041FF0044FF006B
:1001630047FF004AFF004DFF0050FF0053FF0056BA
:10017300FF0059FF005CFF005FFF0062FF0065FFA7
:100183000068FF006BFF006EFF0071FF0074FF004B
:1001930077FF007AFF007DFF0080FF0083FF00866A
:1001A300FF0089FF008CFF008FFF0092FF0095FF87
:1001B3000098FF009BFF009EFF00A1FF00A4FF002B
:1001C300A7FF00AAFF00ADFF00B0FF00B3FF00B61A
:1001D300FF00B9FF00BCFF00BFFF00C2FF00C5FF67
:1001E30000C8FF0017FF001AFF001DFF0020FF00DB
:1001F30023FF0026FF0029FF002CFF002FFF003202
:10020300FF0035FF0038FF003BFF003EFF0041FFCA
:100213000044FF0047FF004AFF004DFF0050FF006E
:1002230053FF0056FF0059FF005CFF005FFF0062B1
:10023300FF0065FF0068FF006BFF006EFF0071FFAA
:100243000074FF0077FF007AFF007DFF0080FF004E
:1002530083FF0086FF0089FF008CFF008FFF009261
:10026300FF0095FF0098FF009BFF009EFF00A1FF8A
:0802730000A4FF00A7FF00AA90
:040852000230000070
:0603B8008F108D118B1265
:1003BE0080631207AB1204B58F1C12081AAF1CEF24
:1003CE003395E0FEEF64FE7002EEF470030204B4A7
:1003DE000531E531700205306407453070D4F530D3
:1003EE00F5310512AF12EF3395E0FEEF643C4E701F
:1003FE0022F5120511AF11EF3395E0FEEF643C4E7E
:10040E0070110510AF10EF3395E0FEEF64184E70CB
:10041E0002F510AF10EF3395E0FE9000CB75F003B0
:10042E00EF12032BEE75F003A42583F583E493FB03
:10043E00740193FA7402938B208A21F522AF11EF87
:10044E003395E0FE90011375F003EF12032BEE755A
:10045E00F003A42583F583E493FB740193FA7402ED
:10046E00938B238A24F525AF12EF3395E0FE90018E
:10047E00C775F003EF12032BEE75F003A42583F579
:10048E0083E493FB740193FA7402938B268A27F507
:10049E00287B007A00791312056B7B007A007913A2
:0604AE0012060C0203C05F
:0104B4002225
:10056B008B1D8A1E891FAB20AA21A92212027BABED
:10057B001DAA1EA91F1202C1AB20AA21A9229000FD
:10058B0001120294AB1DAA1EA91F9000011202D3E7
:10059B00900002742E1202D3AB23AA24A9251202B7
:1005AB007BAB1DAA1EA91F9000031202D3AB23AA7B
:1005BB0024A925900001120294AB1DAA1EA91F901D
:1005CB0000041202D3900005742E1202D3AB26AA9C
:1005DB0027A92812027BAB1DAA1EA91F9000061289
:1005EB0002D3AB26AA27A928900001120294AB1DB7
:1005FB00AA1EA91F9000071202D3900008E4020262
:01060B00D31B
:01086900226C
:04085600023200006A
:100731007B377D3B7F141203B81204B5740825334F
:10074100F8A60712081A74082533F8E6FF3395E076
:10075100FEEFF47002EEF4601D0533E5337002051F
:100761003264064532601DAE32AF337C007D061225
:1007710002F58C328D337B007A00790812060C1257
:1007810007AB80B5E50875F00AA4250924B6FFE595
:100791000A75F00AA4250B24B6FDE50C75F00AA430
:0A07A100250D24B624FEFB0203B868
:1007EE00303F3106325B334F3466356D367D370719
:1007FE00387F396F4177427C4339445E4579467183
:0C080E0048764C385A5B596E536D000060
:03085A0001290071
:0D084500D2A0D2A1D2A2D2A3D2A4D2A522C9
:10060C00E4FDEDFF3395E0FEC3EF9406EE648094B9
:10061C008040030206A212027BB42E0B1D742A2DFD
:10062C00F8E64480F68064E4FCECFF3395E0FEEFE2
:10063C0025E0FFEE33FE74EE2FF58274073EF58352
:10064C00E4936047ECFF3395E0FEEF25E0FFEE33DB
:10065C00FE74EE2FF58274073EF583E493FF1202CD
:10066C007BFEEFB50622ECFF3395E0FEEF25E0FFB5
:10067C00EE33FE74EF2FF58274073EF583E493FF9F
:10068C00742A2DF8A60780030C809E740129F9E4C6
:08069C003AFA0D02060E7F0080
:0106A4002233
:1007AB00120845742A2529F8E6F4F580E52914602A
:1007BB001414601514601614601714601824057057
:1007CB0016C2A08012C2A1800EC2A2800AC2A38050
:1007DB0006C2A48002C2A50529E52975F006848509
:0207EB00F029F3
:0107ED0022E9
:0B085E00EF1FAC0670011E4C70F6226C
:100833007E007F067D007B007A00792A1203377FD2
:02084300002291
:1004B50075B0F0AFB0EF64F0700302056812081A6A
:1004C500AFB0EF64F0700302056875B0F020B405B5
:1004D500751E01800B20B505751E028003751E0370
:1004E50075B00F20B005E4F51D801320B105751D0D
:1004F50001800B20B205751D028003751D03E51DE6
:1005050075F003A4251EFF14B40C00505690052069
:1005150075F003A4C58325F0C58373020544020560
:100525004702054A02054D020550020553020556CC
:1005350002055902055C02055F0205620205657F39
:1005450031227F32227F33227F34227F35227F364C
:10055500227F37227F38227F39227FFE227F302279
:050565007FFD227FFF75
:01056A00226E
:10081A00751F0A7520E6E5201520AE1F7002151F08
:08082A004E60051207AB80EEE1
:0108320022A3
:030000000206A550
:0C06A500787FE4F6D8FD7581330206EC86
:10027B00BB010689828A83E0225002E722BBFE0281
:09028B00E32289828A83E49322B4
:10029400BB010CE58229F582E5833AF583E022501F
:1002A40006E92582F8E622BBFE06E92582F8E22269
:0D02B400E58229F582E5833AF583E4932283
:1002C100BB010689828A83F0225002F722BBFE011C
:0202D100F32216
:1002D300F8BB010DE58229F582E5833AF583E8F061
:1002E300225006E92582C8F622BBFE05E92582C80D
:0202F300F222F5
:1002F500C2D5EC30E709B2D5E4C39DFDE49CFCEE24
:1003050030E715B2D5E4C39FFFE49EFE120363C335
:10031500E49DFDE49CFC800312036330D507C3E430
:060325009FFFE49EFE2292
:0C032B00A42582F582E5F03583F58322DD
:10033700EF4E6012EF60010EEDBB010B89828A83DD
:10034700F0A3DFFCDEFA2289F05007F709DFFCA9EA
:0C035700F022BBFEFCF309DFFCA9F02241
:1006B100020731E493A3F8E493A34003F68001F227
:1006C10008DFF48029E493A3F85407240CC8C3334A
:1006D100C4540F4420C8834004F456800146F6DF19
:1006E100E4800B0102040810204080900852E47E4F
:1006F100019360BCA3FF543F30E509541FFEE4930E
:10070100A360010ECF54C025E060A840B8E493A3D4
:10071100FAE493A3F8E493A3C8C582C8CAC583CAFF
:10072100F0A3C8C582C8CAC583CADFE9DEE780BEB7
:01085D00009A
:10036300BC000BBE0029EF8DF084FFADF022E4CC7E
:10037300F875F008EF2FFFEE33FEEC33FCEE9DEC47
:10038300984005FCEE9DFE0FD5F0E9E4CEFD22ED8D
:10039300F8F5F0EE8420D21CFEADF075F008EF2FD7
:1003A300FFED33FD4007985006D5F0F222C398FDC8
:0503B3000FD5F0EA2265
:00000001FF
