:100003003000310032003300340035003600370051
:1000130038003900313000313100313200313300E2
:100023003134003135003136003137003138003199
:100033003900323000323100323200323300323490
:1000430000323500323600323700323800323900A0
:100053003330003331003332003333003334003371
:10006300350033360033370033380033390034304A
:10007300003431003432003433003434003435007A
:100083003436003437003438003439003530003525
:10009300310035320035330035340035350035361F
:1000A3000035370035380035390030300030310045
:1000B3003032003033003034003035003036003019
:1000C3003700303800303900FF0003FF0005FF0020
:1000D30007FF0009FF000BFF000DFF000FFF0011DA
:1000E300FF0013FF0015FF0017FF001AFF001DFF9D
:1000F3000020FF0023FF0026FF0029FF002CFF0044
:100103002FFF0032FF0035FF0038FF003BFF003EAA
:10011300FF0003FF0005FF0007FF0009FF000BFFBF
:10012300000DFF000FFF0011FF0013FF0015FF007C
:1001330017FF001AFF001DFF0020FF0023FF00260A
:10014300FF0029FF002CFF002FFF0032FF0035FFC7
:100153000038FF003BFF003EFF0041FF0044FF006B
:1001630047FF004AFF004DFF0050FF0053FF0056BA
:10017300FF0059FF005CFF005FFF0062FF0065FFA7
:100183000068FF006BFF006EFF0071FF0074FF004B
:1001930077FF007AFF007DFF0080FF0083FF00866A
:1001A300FF0089FF008CFF008FFF0092FF0095FF87
:1001B3000098FF009BFF009EFF00A1FF00A4FF002B
:1001C300A7FF00AAFF00ADFF00B0FF00B3FF00B61A
:1001D300FF00B9FF00BCFF00BFFF00C2FF00C5FF67
:1001E30000C8FF0017FF001AFF001DFF0020FF00DB
:1001F30023FF0026FF0029FF002CFF002FFF003202
:10020300FF0035FF0038FF003BFF003EFF0041FFCA
:100213000044FF0047FF004AFF004DFF0050FF006E
:1002230053FF0056FF0059FF005CFF005FFF0062B1
:10023300FF0065FF0068FF006BFF006EFF0071FFAA
:100243000074FF0077FF007AFF007DFF0080FF004E
:1002530083FF0086FF0089FF008CFF008FFF009261
:10026300FF0095FF0098FF009BFF009EFF00A1FF8A
:0802730000A4FF00A7FF00AA90
:04068300022700004A
:060575008F088D098B0ABE
:10057B0012027B7B007A00790B1204501205E10505
:10058B0028E52870020527B4FCF2E527B453EDE407
:10059B00F527F528050AAF0AEF3395E0FEEF643C2B
:1005AB004E7022F50A0509AF09EF3395E0FEEF64B3
:1005BB003C4E70110508AF08EF3395E0FEEF641861
:1005CB004E7002F508AF0812027B7B007A00790BA4
:0605DB0012045002058726
:10027B00EF3395E0FE9000CB75F003EF120418EE10
:10028B0075F003A42583F583E493FB740193FA744F
:10029B0002938B178A18F519AF09EF3395E0FE908F
:1002AB00011375F003EF120418EE75F003A4258308
:1002BB00F583E493FB740193FA7402938B1A8A1BF4
:1002CB00F51CAF0AEF3395E0FE9001C775F003EF15
:1002DB00120418EE75F003A42583F583E493FB74E5
:1002EB000193FA7402938B1D8A1EF51F7B007A0013
:0202FB00790B7D
:1002FD008B148A158916AB17AA18A91912039EAB70
:10030D0014AA15A9161203E4AB17AA18A91990007F
:10031D00011203B7AB14AA15A9169000011203F62A
:10032D00900002742E1203F6AB1AAA1BA91C12031D
:10033D009EAB14AA15A9169000031203F6AB1AAAC8
:10034D001BA91C9000011203B7AB14AA15A9169096
:10035D0000041203F6900005742E1203F6AB1DAACD
:10036D001EA91F12039EAB14AA15A9169000061202
:10037D0003F6AB1DAA1EA91F9000011203B7AB1403
:10038D00AA15A9169000071203F6900008E40203BF
:01039D00F669
:09067A00E4FB7D1E7F14020575EE
:10062400303F3106325B334F3466356D367D3707E4
:10063400387F396F4177427C4339445E457946714E
:0C06440048764C385A5B596E536D00002C
:030687000120004F
:0D066200D2A0D2A1D2A2D2A3D2A4D2A522AE
:10045000E4FDEDFF3395E0FEC3EF9406EE64809477
:100460008040030204E612039EB42E0B1D74212D5E
:10047000F8E64480F68064E4FCECFF3395E0FEEFA0
:1004800025E0FFEE33FE74242FF58274063EF583DB
:10049000E4936047ECFF3395E0FEEF25E0FFEE3399
:1004A000FE74242FF58274063EF583E493FF120355
:1004B0009EFEEFB50622ECFF3395E0FEEF25E0FF50
:1004C000EE33FE74252FF58274063EF583E493FF28
:1004D00074212DF8A60780030C809E740129F9E48D
:0804E0003AFA0D0204527F00FC
:0104E80022F1
:1005E10012066274212520F8E6F4F580E5201460F6
:1005F1001414601514601614601714601824057023
:1006010016C2A08012C2A1800EC2A2800AC2A3801B
:1006110006C2A48002C2A50520E52075F0068485E6
:02062100F020C7
:0106230022B4
:0B066F00EF1FAC0670011E4C70F6225D
:100650007E007F067D007B007A0079211204247FD2
:02066000002276
:030000000204E90E
:0C04E900787FE4F6D8FD7581280205300C
:10039E00BB010689828A83E0225002E722BBFE025D
:0903AE00E32289828A83E4932290
:1003B700BB010CE58229F582E5833AF583E02250FB
:1003C70006E92582F8E622BBFE06E92582F8E22245
:0D03D700E58229F582E5833AF583E493225F
:1003E400BB010689828A83F0225002F722BBFE01F8
:0203F400F322F2
:1003F600F8BB010DE58229F582E5833AF583E8F03D
:10040600225006E92582C8F622BBFE05E92582C8E8
:02041600F222D0
:0C041800A42582F582E5F03583F58322EF
:10042400EF4E6012EF60010EEDBB010B89828A83EF
:10043400F0A3DFFCDEFA2289F05007F709DFFCA9FC
:0C044400F022BBFEFCF309DFFCA9F02253
:1004F50002067AE493A3F8E493A34003F68001F29D
:1005050008DFF48029E493A3F85407240CC8C33307
:10051500C4540F4420C8834004F456800146F6DFD6
:10052500E4800B0102040810204080900683E47EDD
:10053500019360BCA3FF543F30E509541FFEE493CB
:10054500A360010ECF54C025E060A840B8E493A392
:10055500FAE493A3F8E493A3C8C582C8CAC583CABD
:10056500F0A3C8C582C8CAC583CADFE9DEE780BE75
:01068A00006F
:00000001FF
