:10017400202C09303F3106325B334F3466356D36FF
:100184007D3707387F396F4177427C4339445E4578
:1001940079467148764C385A5B596E536D000001AC
:0201A400080051
:0D01CE00D2A0D2A1D2A2D2A3D2A4D2A52247
:10008F00E4FFEFFD3395E0FCC3ED9406EC64809440
:10009F008050471200ECB42E0B1F74352FF8E64436
:1000AF0080F6802CE4FEEE25E02409F8E6602112AC
:1000BF0000ECFDEE25E02409F8E6B50510EE25E08D
:1000CF00240AF8E6FE74352FF8A60680030E80D6B4
:0C00DF00740129F9E43AFA0F80A87F00B0
:0100EB0022F2
:100131001201CE74352508F8E6F4F580E50814605F
:1001410014146015146016146017146018240570D7
:1001510016C2A08012C2A1800EC2A2800AC2A380D0
:1001610006C2A48002C2A50508E50875F0068485CB
:02017100F00894
:010173002269
:0B01DB00EF1FAC0670011E4C70F622F6
:1001BC007E007F067D007B007A0079351201057F79
:0201CC0000220F
:0801E6004542592E3538330063
:1001A7007BFF7A0179E612008F1201317F587E02B8
:0501B7001201DB80F4E1
:03000000020003F8
:0C000300787FE4F6D8FD75813A02004ACF
:1000EC00BB010689828A83E0225002E722BBFE0212
:0900FC00E32289828A83E4932245
:10010500EF4E6012EF60010EEDBB010B89828A8311
:10011500F0A3DFFCDEFA2289F05007F709DFFCA91E
:0C012500F022BBFEFCF309DFFCA9F02275
:10000F000201A7E493A3F8E493A34003F68001F25F
:10001F0008DFF48029E493A3F85407240CC8C333F2
:10002F00C4540F4420C8834004F456800146F6DFC1
:10003F00E4800B0102040810204080900174E47EDC
:10004F00019360BCA3FF543F30E509541FFEE493B6
:10005F00A360010ECF54C025E060A840B8E493A37D
:10006F00FAE493A3F8E493A3C8C582C8CAC583CAA8
:10007F00F0A3C8C582C8CAC583CADFE9DEE780BE60
:0101A6000058
:00000001FF
