:1001B000303F3106325B334F3466356D367D37075D
:1001C000387F396F4177427C4339445E45794671C7
:0C01D00048764C385A5B596E536D0000A5
:03022300010800CF
:0D020300D2A0D2A1D2A2D2A3D2A4D2A52211
:10000300E4FDEDFF3395E0FEC3EF9406EE648094C8
:10001300804003020099120128B42E0B1D74092D90
:10002300F8E64480F68064E4FCECFF3395E0FEEFF1
:1000330025E0FFEE33FE74B02FF58274013EF583A5
:10004300E4936047ECFF3395E0FEEF25E0FFEE33EA
:10005300FE74B02FF58274013EF583E493FF120121
:1000630028FEEFB50622ECFF3395E0FEEF25E0FF17
:10007300EE33FE74B12FF58274013EF583E493FFF2
:1000830074092DF8A60780030C809E740129F9E4F6
:080093003AFA0D0200057F009E
:01009B002242
:10016D00120203E50814601414601514601614606F
:10017D001714601824057016C2A08012C2A1800E3B
:10018D00C2A2800AC2A38006C2A48002C2A57409BD
:10019D002508F8E6F4F5800508E50875F006848570
:0201AD00F00858
:0101AF00222D
:0B021000EF1FAC0670011E4C70F622C0
:1001F1007E007F067D007B007A0079091201417F34
:020201000022D9
:08021B00332E31343135390076
:1001DC007BFF7A02791B12000312016D7F587E029D
:0501EC0012021080F476
:0300000002009C5F
:0C009C00787FE4F6D8FD75810E0200E3C9
:10012800BB010689828A83E0225002E722BBFE02D5
:09013800E32289828A83E4932208
:10014100EF4E6012EF60010EEDBB010B89828A83D5
:10015100F0A3DFFCDEFA2289F05007F709DFFCA9E2
:0C016100F022BBFEFCF309DFFCA9F02239
:1000A8000201DCE493A3F8E493A34003F68001F291
:1000B80008DFF48029E493A3F85407240CC8C33359
:1000C800C4540F4420C8834004F456800146F6DF28
:1000D800E4800B0102040810204080900223E47E93
:1000E800019360BCA3FF543F30E509541FFEE4931D
:1000F800A360010ECF54C025E060A840B8E493A3E4
:10010800FAE493A3F8E493A3C8C582C8CAC583CA0E
:10011800F0A3C8C582C8CAC583CADFE9DEE780BEC6
:0102260000D7
:00000001FF
