:1009B400303F3106325B334F3466356D367D370751
:1009C400387F396F4177427C4339445E45794671BB
:0C09D40048764C385A5B596E536D000099
:030A2700010800C3
:0D0A0700D2A0D2A1D2A2D2A3D2A4D2A52205
:10080000E94A70037FFF22E4FDEDFF3395E0FEC36C
:10081000EF9406EE64809480400302089D12092C38
:10082000B42E0B1D74092DF8E64480F68064E4FCB8
:10083000ECFF3395E0FEEF25E0FFEE33FE74B42FBE
:10084000F58274093EF583E4936047ECFF3395E04D
:10085000FEEF25E0FFEE33FE74B42FF58274093EFF
:10086000F583E493FF12092CFEEFB50622ECFF336B
:1008700095E0FEEF25E0FFEE33FE74B52FF58274B0
:10088000093EF583E493FF74092DF8A60780030C55
:0F089000809E740129F9E43AFA0D0208097F00ED
:01089F002236
:10097100120A0774092508F8E6F4F580E508146001
:10098100141460151460161460171460182405708F
:1009910016C2A08012C2A1800EC2A2800AC2A38088
:1009A10006C2A48002C2A50508E50875F006848583
:0209B100F0084C
:0109B3002221
:0B0A1400EF1FAC0670011E4C70F622B4
:1009F5007E007F067D007B007A0079091209457F1C
:020A05000022CD
:080A1F00332E3134313539006A
:1009E0007BFF7A0A791F1208001209717F587E0274
:0509F000120A1480F45E
:030000000208A053
:0C08A000787FE4F6D8FD75810E0208E7B1
:10092C00BB010689828A83E0225002E722BBFE02C9
:09093C00E32289828A83E49322FC
:10094500EF4E6012EF60010EEDBB010B89828A83C9
:10095500F0A3DFFCDEFA2289F05007F709DFFCA9D6
:0C096500F022BBFEFCF309DFFCA9F0222D
:1008AC000209E0E493A3F8E493A34003F68001F279
:1008BC0008DFF48029E493A3F85407240CC8C3334D
:1008CC00C4540F4420C8834004F456800146F6DF1C
:1008DC00E4800B0102040810204080900A27E47E7B
:1008EC00019360BCA3FF543F30E509541FFEE49311
:1008FC00A360010ECF54C025E060A840B8E493A3D8
:10090C00FAE493A3F8E493A3C8C582C8CAC583CA02
:10091C00F0A3C8C582C8CAC583CADFE9DEE780BEBA
:010A2A0000CB
:00000001FF
