:1003F800E4F50EC3E50E94B87480948B500FC2B523
:0D0408007F057E001203E3D2B5050E80E6ED
:0104150022C4
:10033E00AD07AC06EC1201AEA804A905AA06AB07E0
:10034E00E4FFFE7D807C3F12010C8F0D8E0C8D0B19
:10035E008C0AE4F509AF09EF3395E0FEC3EF941E66
:10036E00EE64809480500EC2B51203C4D2B512034F
:05037E00C4050980E048
:010383002257
:100416007C037D99120268EF1FAC0670011E4C70BA
:01042600F6DF
:0104270022B2
:1003C4007F007E407D1C7C46AB0DAA0CA90BA80ABD
:0F03D400120003E4FBFAF9784012010C1201E762
:1003E3001201E77C007D5D120268EF1FAC0670010D
:0403F3001E4C70F636
:0103F70022E3
:10038400D2B51202888F08120428AF08EF3395E023
:10039400FEEFF47002EEF46020EF24DAFBEE34FF9B
:1003A400FA7C007D32AF03FE120268AC06AD07AFE3
:1003B40003AE0212026812033E7508FFD2B580C074
:100288007590F0AF90EF64F0700302033B120428FE
:10029800AF90EF64F0700302033B7590F020940573
:1002A800750A01800B209505750A028003750A03FB
:1002B80075900F209005E4F50980132091057509C4
:1002C80001800B2092057509028003750903E50971
:1002D80075F003A4250AFF14B40C0050569002F3DD
:1002E80075F003A4C58325F0C583730203170203C1
:1002F8001A02031D02032002032302032602032914
:1003080002032C02032F0203320203350203387F53
:1003180031227F32227F33227F34227F35227F367B
:10032800227F37227F38227F39227FFE227F3022A8
:050338007FFD227FFFA4
:01033D00229D
:0E0428007FE67E0AEF1FAC0670011E4C70F6D8
:0104360022A3
:10000300EC4D6011E8497017ED33EC3304600DE4F7
:10001300FCFFFEFD22E933E8330470F802025312B9
:10002300021E58046009E4CC2481500628500902BA
:10003300025D28400302025AC0E0EB4A7044B980D3
:1000430006D0E0FB020249EF4E701CBD8008EBFFB7
:10005300EAFEE9FD80EBE98DF0A4FEE5F00200EC99
:10006300E9CDF9EAFEEBFFEF89F0A4FCE5F0CE89D8
:10007300F0A42EFFE435F0CD89F0A42DFEE435F095
:100083008067EF4E7005BD80D780C3EF8BF0A4ACC3
:10009300F0EE8BF0A42CFCE435F0F8EF8AF0A42CFE
:1000A300E5F038FCE433CB8DF0A42CFCE5F03BF811
:1000B300EE8AF0A42CFCE5F038F8E433CF89F0A401
:1000C3002CFCE5F038CF3400CE89F0A42FFFE5F007
:1000D3003EFEE433C98DF0A42EFEE5F039CD8AF05F
:1000E300A42FFFE5F03EFEE43DFD33D0E0FB5007D7
:1000F3000BBB000F02025DEC2CFCEF33FFEE33FE73
:06010300ED33FD020235A0
:1001090002025DEC5D046005E859047003020253C4
:1001190012021E580460F6EC4860F2EC7004FDFE11
:10012900FF22C860DB2481C85009C39860025006C9
:1001390002025A9850CAF582E9294B4A7005AB82E6
:1001490002024975F0007C1A7880C3EF9BEE9AEDA4
:1001590099400DC3EF9BFFEE9AFEED99FDE842F041
:10016900DC23ACF0D0E0FFD0E0FED0E0FDAB822094
:10017900E7101BEB60BAEC2CFCEF33FFEE33FEED1E
:1001890033FD020235E803F830E705C0F075F000E9
:10019900EF2FFFEE33FEED33FD40B830E7C280AA02
:1001A90075F020800E75F010800575F0087D007ED1
:1001B900007F003392D530D50312027AEC33401018
:1001C900EF33FFEE33FEED33FDEC33FCD5F0ED22DA
:0E01D900E5F0247EA2D513CC92E7CDCEFF2216
:1001E700EDD2E7CD33EC3392D524814006E4FFFE10
:1001F700FDFC22FCE4CFCECDCC24E0501174FF806F
:10020700EDC3CC13CCCD13CDCE13CECF13CF04700B
:07021700F030D5DE02027A8F
:10021E00E9D2E7C933E833F892D5EDD2E7CD33EC26
:07022E0033FC5002B2D5229F
:10023500EC30E7100FBF000C0EBE00080DBD00042A
:100245000BEB6014A2D5EB13FCED92E7FD2274FFD6
:10025500FCFDFEFF22E480F8A2D574FF13FC7D802F
:03026500E480EF43
:03000000020437C0
:0C043700787FE4F6D8FD75810E02038486
:10026800EF8DF0A4A8F0CF8CF0A428CE8DF0A42EAA
:02027800FE2264
:0E027A00C3E49FFFE49EFEE49DFDE49CFC2295
:00000001FF
